{
  "contracts/DSA.sol": {
    "DSA": {
      "abi": [
        {
          "inputs": [
            {
              "internalType": "uint256[]",
              "name": "arr",
              "type": "uint256[]"
            }
          ],
          "name": "bubbleSort",
          "outputs": [
            {
              "internalType": "uint256[]",
              "name": "",
              "type": "uint256[]"
            }
          ],
          "stateMutability": "pure",
          "type": "function"
        },
        {
          "inputs": [
            {
              "internalType": "uint256[]",
              "name": "arr",
              "type": "uint256[]"
            }
          ],
          "name": "insertionSort",
          "outputs": [
            {
              "internalType": "uint256[]",
              "name": "",
              "type": "uint256[]"
            }
          ],
          "stateMutability": "pure",
          "type": "function"
        },
        {
          "inputs": [
            {
              "internalType": "uint256[]",
              "name": "arr",
              "type": "uint256[]"
            }
          ],
          "name": "mergeSort",
          "outputs": [
            {
              "internalType": "uint256[]",
              "name": "",
              "type": "uint256[]"
            }
          ],
          "stateMutability": "pure",
          "type": "function"
        },
        {
          "inputs": [],
          "name": "salam",
          "outputs": [
            {
              "internalType": "uint256",
              "name": "",
              "type": "uint256"
            }
          ],
          "stateMutability": "view",
          "type": "function"
        }
      ],
      "evm": {
        "bytecode": {
          "linkReferences": {},
          "object": "6080604052601760005534801561001557600080fd5b50610bac806100256000396000f3fe608060405234801561001057600080fd5b506004361061004c5760003560e01c806345925912146100515780636297206f14610081578063ba59d9ff146100b1578063e30c36f1146100cf575b600080fd5b61006b6004803603810190610066919061088c565b6100ff565b6040516100789190610993565b60405180910390f35b61009b6004803603810190610096919061088c565b6102b3565b6040516100a89190610993565b60405180910390f35b6100b96103c0565b6040516100c691906109c4565b60405180910390f35b6100e960048036038101906100e4919061088c565b6103c6565b6040516100f69190610993565b60405180910390f35b6060600282511015610113578190506102ae565b6000600283516101239190610a3d565b905060008167ffffffffffffffff81111561014157610140610713565b5b60405190808252806020026020018201604052801561016f5781602001602082028036833780820191505090505b50905060008285516101819190610a6e565b67ffffffffffffffff81111561019a57610199610713565b5b6040519080825280602002602001820160405280156101c85781602001602082028036833780820191505090505b50905060005b8251811015610224578581815181106101ea576101e9610aa2565b5b602002602001015183828151811061020557610204610aa2565b5b602002602001018181525050808061021c90610ad1565b9150506101ce565b5060005b81518110156102895785848261023e9190610b19565b8151811061024f5761024e610aa2565b5b602002602001015182828151811061026a57610269610aa2565b5b602002602001018181525050808061028190610ad1565b915050610228565b50610293826100ff565b5061029d816100ff565b506102a8828261050e565b93505050505b919050565b60606000825190506000600190505b8181116103b65760008482815181106102de576102dd610aa2565b5b6020026020010151905060008290505b600181118015610323575081866001836103089190610a6e565b8151811061031957610318610aa2565b5b6020026020010151115b1561038157856001826103369190610a6e565b8151811061034757610346610aa2565b5b602002602001015186828151811061036257610361610aa2565b5b602002602001018181525050808061037990610b4d565b9150506102ee565b8186828151811061039557610394610aa2565b5b602002602001018181525050505080806103ae90610ad1565b9150506102c2565b5082915050919050565b60005481565b606060006001905060005b83518110156105045760005b8085516103ea9190610a6e565b8110156104e357846001836103ff9190610b19565b815181106104105761040f610aa2565b5b602002602001015185838151811061042b5761042a610aa2565b5b602002602001015111156104d0576000856001846104499190610b19565b8151811061045a57610459610aa2565b5b6020026020010151905085838151811061047757610476610aa2565b5b60200260200101518660018561048d9190610b19565b8151811061049e5761049d610aa2565b5b602002602001018181525050808684815181106104be576104bd610aa2565b5b60200260200101818152505060009350505b80806104db90610ad1565b9150506103dd565b506001151582151503156105045780806104fc90610ad1565b9150506103d1565b5082915050919050565b6060600080600060605b8651841080156105285750855183105b15610612578583815181106105405761053f610aa2565b5b602002602001015187858151811061055b5761055a610aa2565b5b602002602001015111156105b65785838151811061057c5761057b610aa2565b5b602002602001015181838151811061059757610596610aa2565b5b60200260200101818152505082806105ae90610ad1565b9350506105ff565b8684815181106105c9576105c8610aa2565b5b60200260200101518183815181106105e4576105e3610aa2565b5b60200260200101818152505083806105fb90610ad1565b9450505b818061060a90610ad1565b925050610518565b5b86518410156106775786848151811061062f5761062e610aa2565b5b602002602001015181838151811061064a57610649610aa2565b5b602002602001018181525050838061066190610ad1565b945050818061066f90610ad1565b925050610613565b5b85518410156106dc5785838151811061069457610693610aa2565b5b60200260200101518183815181106106af576106ae610aa2565b5b60200260200101818152505082806106c690610ad1565b93505081806106d490610ad1565b925050610678565b8094505050505092915050565b6000604051905090565b600080fd5b600080fd5b600080fd5b6000601f19601f8301169050919050565b7f4e487b7100000000000000000000000000000000000000000000000000000000600052604160045260246000fd5b61074b82610702565b810181811067ffffffffffffffff8211171561076a57610769610713565b5b80604052505050565b600061077d6106e9565b90506107898282610742565b919050565b600067ffffffffffffffff8211156107a9576107a8610713565b5b602082029050602081019050919050565b600080fd5b6000819050919050565b6107d2816107bf565b81146107dd57600080fd5b50565b6000813590506107ef816107c9565b92915050565b60006108086108038461078e565b610773565b9050808382526020820190506020840283018581111561082b5761082a6107ba565b5b835b81811015610854578061084088826107e0565b84526020840193505060208101905061082d565b5050509392505050565b600082601f830112610873576108726106fd565b5b81356108838482602086016107f5565b91505092915050565b6000602082840312156108a2576108a16106f3565b5b600082013567ffffffffffffffff8111156108c0576108bf6106f8565b5b6108cc8482850161085e565b91505092915050565b600081519050919050565b600082825260208201905092915050565b6000819050602082019050919050565b61090a816107bf565b82525050565b600061091c8383610901565b60208301905092915050565b6000602082019050919050565b6000610940826108d5565b61094a81856108e0565b9350610955836108f1565b8060005b8381101561098657815161096d8882610910565b975061097883610928565b925050600181019050610959565b5085935050505092915050565b600060208201905081810360008301526109ad8184610935565b905092915050565b6109be816107bf565b82525050565b60006020820190506109d960008301846109b5565b92915050565b7f4e487b7100000000000000000000000000000000000000000000000000000000600052601260045260246000fd5b7f4e487b7100000000000000000000000000000000000000000000000000000000600052601160045260246000fd5b6000610a48826107bf565b9150610a53836107bf565b925082610a6357610a626109df565b5b828204905092915050565b6000610a79826107bf565b9150610a84836107bf565b9250828203905081811115610a9c57610a9b610a0e565b5b92915050565b7f4e487b7100000000000000000000000000000000000000000000000000000000600052603260045260246000fd5b6000610adc826107bf565b91507fffffffffffffffffffffffffffffffffffffffffffffffffffffffffffffffff8203610b0e57610b0d610a0e565b5b600182019050919050565b6000610b24826107bf565b9150610b2f836107bf565b9250828201905080821115610b4757610b46610a0e565b5b92915050565b6000610b58826107bf565b915060008203610b6b57610b6a610a0e565b5b60018203905091905056fea2646970667358221220e7d3096992a669291944b5b65533b20d17f08f6d71eb767df23af435e5dcfc8564736f6c63430008150033",
          "opcodes": "PUSH1 0x80 PUSH1 0x40 MSTORE PUSH1 0x17 PUSH1 0x0 SSTORE CALLVALUE DUP1 ISZERO PUSH2 0x15 JUMPI PUSH1 0x0 DUP1 REVERT JUMPDEST POP PUSH2 0xBAC DUP1 PUSH2 0x25 PUSH1 0x0 CODECOPY PUSH1 0x0 RETURN INVALID PUSH1 0x80 PUSH1 0x40 MSTORE CALLVALUE DUP1 ISZERO PUSH2 0x10 JUMPI PUSH1 0x0 DUP1 REVERT JUMPDEST POP PUSH1 0x4 CALLDATASIZE LT PUSH2 0x4C JUMPI PUSH1 0x0 CALLDATALOAD PUSH1 0xE0 SHR DUP1 PUSH4 0x45925912 EQ PUSH2 0x51 JUMPI DUP1 PUSH4 0x6297206F EQ PUSH2 0x81 JUMPI DUP1 PUSH4 0xBA59D9FF EQ PUSH2 0xB1 JUMPI DUP1 PUSH4 0xE30C36F1 EQ PUSH2 0xCF JUMPI JUMPDEST PUSH1 0x0 DUP1 REVERT JUMPDEST PUSH2 0x6B PUSH1 0x4 DUP1 CALLDATASIZE SUB DUP2 ADD SWAP1 PUSH2 0x66 SWAP2 SWAP1 PUSH2 0x88C JUMP JUMPDEST PUSH2 0xFF JUMP JUMPDEST PUSH1 0x40 MLOAD PUSH2 0x78 SWAP2 SWAP1 PUSH2 0x993 JUMP JUMPDEST PUSH1 0x40 MLOAD DUP1 SWAP2 SUB SWAP1 RETURN JUMPDEST PUSH2 0x9B PUSH1 0x4 DUP1 CALLDATASIZE SUB DUP2 ADD SWAP1 PUSH2 0x96 SWAP2 SWAP1 PUSH2 0x88C JUMP JUMPDEST PUSH2 0x2B3 JUMP JUMPDEST PUSH1 0x40 MLOAD PUSH2 0xA8 SWAP2 SWAP1 PUSH2 0x993 JUMP JUMPDEST PUSH1 0x40 MLOAD DUP1 SWAP2 SUB SWAP1 RETURN JUMPDEST PUSH2 0xB9 PUSH2 0x3C0 JUMP JUMPDEST PUSH1 0x40 MLOAD PUSH2 0xC6 SWAP2 SWAP1 PUSH2 0x9C4 JUMP JUMPDEST PUSH1 0x40 MLOAD DUP1 SWAP2 SUB SWAP1 RETURN JUMPDEST PUSH2 0xE9 PUSH1 0x4 DUP1 CALLDATASIZE SUB DUP2 ADD SWAP1 PUSH2 0xE4 SWAP2 SWAP1 PUSH2 0x88C JUMP JUMPDEST PUSH2 0x3C6 JUMP JUMPDEST PUSH1 0x40 MLOAD PUSH2 0xF6 SWAP2 SWAP1 PUSH2 0x993 JUMP JUMPDEST PUSH1 0x40 MLOAD DUP1 SWAP2 SUB SWAP1 RETURN JUMPDEST PUSH1 0x60 PUSH1 0x2 DUP3 MLOAD LT ISZERO PUSH2 0x113 JUMPI DUP2 SWAP1 POP PUSH2 0x2AE JUMP JUMPDEST PUSH1 0x0 PUSH1 0x2 DUP4 MLOAD PUSH2 0x123 SWAP2 SWAP1 PUSH2 0xA3D JUMP JUMPDEST SWAP1 POP PUSH1 0x0 DUP2 PUSH8 0xFFFFFFFFFFFFFFFF DUP2 GT ISZERO PUSH2 0x141 JUMPI PUSH2 0x140 PUSH2 0x713 JUMP JUMPDEST JUMPDEST PUSH1 0x40 MLOAD SWAP1 DUP1 DUP3 MSTORE DUP1 PUSH1 0x20 MUL PUSH1 0x20 ADD DUP3 ADD PUSH1 0x40 MSTORE DUP1 ISZERO PUSH2 0x16F JUMPI DUP2 PUSH1 0x20 ADD PUSH1 0x20 DUP3 MUL DUP1 CALLDATASIZE DUP4 CALLDATACOPY DUP1 DUP3 ADD SWAP2 POP POP SWAP1 POP JUMPDEST POP SWAP1 POP PUSH1 0x0 DUP3 DUP6 MLOAD PUSH2 0x181 SWAP2 SWAP1 PUSH2 0xA6E JUMP JUMPDEST PUSH8 0xFFFFFFFFFFFFFFFF DUP2 GT ISZERO PUSH2 0x19A JUMPI PUSH2 0x199 PUSH2 0x713 JUMP JUMPDEST JUMPDEST PUSH1 0x40 MLOAD SWAP1 DUP1 DUP3 MSTORE DUP1 PUSH1 0x20 MUL PUSH1 0x20 ADD DUP3 ADD PUSH1 0x40 MSTORE DUP1 ISZERO PUSH2 0x1C8 JUMPI DUP2 PUSH1 0x20 ADD PUSH1 0x20 DUP3 MUL DUP1 CALLDATASIZE DUP4 CALLDATACOPY DUP1 DUP3 ADD SWAP2 POP POP SWAP1 POP JUMPDEST POP SWAP1 POP PUSH1 0x0 JUMPDEST DUP3 MLOAD DUP2 LT ISZERO PUSH2 0x224 JUMPI DUP6 DUP2 DUP2 MLOAD DUP2 LT PUSH2 0x1EA JUMPI PUSH2 0x1E9 PUSH2 0xAA2 JUMP JUMPDEST JUMPDEST PUSH1 0x20 MUL PUSH1 0x20 ADD ADD MLOAD DUP4 DUP3 DUP2 MLOAD DUP2 LT PUSH2 0x205 JUMPI PUSH2 0x204 PUSH2 0xAA2 JUMP JUMPDEST JUMPDEST PUSH1 0x20 MUL PUSH1 0x20 ADD ADD DUP2 DUP2 MSTORE POP POP DUP1 DUP1 PUSH2 0x21C SWAP1 PUSH2 0xAD1 JUMP JUMPDEST SWAP2 POP POP PUSH2 0x1CE JUMP JUMPDEST POP PUSH1 0x0 JUMPDEST DUP2 MLOAD DUP2 LT ISZERO PUSH2 0x289 JUMPI DUP6 DUP5 DUP3 PUSH2 0x23E SWAP2 SWAP1 PUSH2 0xB19 JUMP JUMPDEST DUP2 MLOAD DUP2 LT PUSH2 0x24F JUMPI PUSH2 0x24E PUSH2 0xAA2 JUMP JUMPDEST JUMPDEST PUSH1 0x20 MUL PUSH1 0x20 ADD ADD MLOAD DUP3 DUP3 DUP2 MLOAD DUP2 LT PUSH2 0x26A JUMPI PUSH2 0x269 PUSH2 0xAA2 JUMP JUMPDEST JUMPDEST PUSH1 0x20 MUL PUSH1 0x20 ADD ADD DUP2 DUP2 MSTORE POP POP DUP1 DUP1 PUSH2 0x281 SWAP1 PUSH2 0xAD1 JUMP JUMPDEST SWAP2 POP POP PUSH2 0x228 JUMP JUMPDEST POP PUSH2 0x293 DUP3 PUSH2 0xFF JUMP JUMPDEST POP PUSH2 0x29D DUP2 PUSH2 0xFF JUMP JUMPDEST POP PUSH2 0x2A8 DUP3 DUP3 PUSH2 0x50E JUMP JUMPDEST SWAP4 POP POP POP POP JUMPDEST SWAP2 SWAP1 POP JUMP JUMPDEST PUSH1 0x60 PUSH1 0x0 DUP3 MLOAD SWAP1 POP PUSH1 0x0 PUSH1 0x1 SWAP1 POP JUMPDEST DUP2 DUP2 GT PUSH2 0x3B6 JUMPI PUSH1 0x0 DUP5 DUP3 DUP2 MLOAD DUP2 LT PUSH2 0x2DE JUMPI PUSH2 0x2DD PUSH2 0xAA2 JUMP JUMPDEST JUMPDEST PUSH1 0x20 MUL PUSH1 0x20 ADD ADD MLOAD SWAP1 POP PUSH1 0x0 DUP3 SWAP1 POP JUMPDEST PUSH1 0x1 DUP2 GT DUP1 ISZERO PUSH2 0x323 JUMPI POP DUP2 DUP7 PUSH1 0x1 DUP4 PUSH2 0x308 SWAP2 SWAP1 PUSH2 0xA6E JUMP JUMPDEST DUP2 MLOAD DUP2 LT PUSH2 0x319 JUMPI PUSH2 0x318 PUSH2 0xAA2 JUMP JUMPDEST JUMPDEST PUSH1 0x20 MUL PUSH1 0x20 ADD ADD MLOAD GT JUMPDEST ISZERO PUSH2 0x381 JUMPI DUP6 PUSH1 0x1 DUP3 PUSH2 0x336 SWAP2 SWAP1 PUSH2 0xA6E JUMP JUMPDEST DUP2 MLOAD DUP2 LT PUSH2 0x347 JUMPI PUSH2 0x346 PUSH2 0xAA2 JUMP JUMPDEST JUMPDEST PUSH1 0x20 MUL PUSH1 0x20 ADD ADD MLOAD DUP7 DUP3 DUP2 MLOAD DUP2 LT PUSH2 0x362 JUMPI PUSH2 0x361 PUSH2 0xAA2 JUMP JUMPDEST JUMPDEST PUSH1 0x20 MUL PUSH1 0x20 ADD ADD DUP2 DUP2 MSTORE POP POP DUP1 DUP1 PUSH2 0x379 SWAP1 PUSH2 0xB4D JUMP JUMPDEST SWAP2 POP POP PUSH2 0x2EE JUMP JUMPDEST DUP2 DUP7 DUP3 DUP2 MLOAD DUP2 LT PUSH2 0x395 JUMPI PUSH2 0x394 PUSH2 0xAA2 JUMP JUMPDEST JUMPDEST PUSH1 0x20 MUL PUSH1 0x20 ADD ADD DUP2 DUP2 MSTORE POP POP POP POP DUP1 DUP1 PUSH2 0x3AE SWAP1 PUSH2 0xAD1 JUMP JUMPDEST SWAP2 POP POP PUSH2 0x2C2 JUMP JUMPDEST POP DUP3 SWAP2 POP POP SWAP2 SWAP1 POP JUMP JUMPDEST PUSH1 0x0 SLOAD DUP2 JUMP JUMPDEST PUSH1 0x60 PUSH1 0x0 PUSH1 0x1 SWAP1 POP PUSH1 0x0 JUMPDEST DUP4 MLOAD DUP2 LT ISZERO PUSH2 0x504 JUMPI PUSH1 0x0 JUMPDEST DUP1 DUP6 MLOAD PUSH2 0x3EA SWAP2 SWAP1 PUSH2 0xA6E JUMP JUMPDEST DUP2 LT ISZERO PUSH2 0x4E3 JUMPI DUP5 PUSH1 0x1 DUP4 PUSH2 0x3FF SWAP2 SWAP1 PUSH2 0xB19 JUMP JUMPDEST DUP2 MLOAD DUP2 LT PUSH2 0x410 JUMPI PUSH2 0x40F PUSH2 0xAA2 JUMP JUMPDEST JUMPDEST PUSH1 0x20 MUL PUSH1 0x20 ADD ADD MLOAD DUP6 DUP4 DUP2 MLOAD DUP2 LT PUSH2 0x42B JUMPI PUSH2 0x42A PUSH2 0xAA2 JUMP JUMPDEST JUMPDEST PUSH1 0x20 MUL PUSH1 0x20 ADD ADD MLOAD GT ISZERO PUSH2 0x4D0 JUMPI PUSH1 0x0 DUP6 PUSH1 0x1 DUP5 PUSH2 0x449 SWAP2 SWAP1 PUSH2 0xB19 JUMP JUMPDEST DUP2 MLOAD DUP2 LT PUSH2 0x45A JUMPI PUSH2 0x459 PUSH2 0xAA2 JUMP JUMPDEST JUMPDEST PUSH1 0x20 MUL PUSH1 0x20 ADD ADD MLOAD SWAP1 POP DUP6 DUP4 DUP2 MLOAD DUP2 LT PUSH2 0x477 JUMPI PUSH2 0x476 PUSH2 0xAA2 JUMP JUMPDEST JUMPDEST PUSH1 0x20 MUL PUSH1 0x20 ADD ADD MLOAD DUP7 PUSH1 0x1 DUP6 PUSH2 0x48D SWAP2 SWAP1 PUSH2 0xB19 JUMP JUMPDEST DUP2 MLOAD DUP2 LT PUSH2 0x49E JUMPI PUSH2 0x49D PUSH2 0xAA2 JUMP JUMPDEST JUMPDEST PUSH1 0x20 MUL PUSH1 0x20 ADD ADD DUP2 DUP2 MSTORE POP POP DUP1 DUP7 DUP5 DUP2 MLOAD DUP2 LT PUSH2 0x4BE JUMPI PUSH2 0x4BD PUSH2 0xAA2 JUMP JUMPDEST JUMPDEST PUSH1 0x20 MUL PUSH1 0x20 ADD ADD DUP2 DUP2 MSTORE POP POP PUSH1 0x0 SWAP4 POP POP JUMPDEST DUP1 DUP1 PUSH2 0x4DB SWAP1 PUSH2 0xAD1 JUMP JUMPDEST SWAP2 POP POP PUSH2 0x3DD JUMP JUMPDEST POP PUSH1 0x1 ISZERO ISZERO DUP3 ISZERO ISZERO SUB ISZERO PUSH2 0x504 JUMPI DUP1 DUP1 PUSH2 0x4FC SWAP1 PUSH2 0xAD1 JUMP JUMPDEST SWAP2 POP POP PUSH2 0x3D1 JUMP JUMPDEST POP DUP3 SWAP2 POP POP SWAP2 SWAP1 POP JUMP JUMPDEST PUSH1 0x60 PUSH1 0x0 DUP1 PUSH1 0x0 PUSH1 0x60 JUMPDEST DUP7 MLOAD DUP5 LT DUP1 ISZERO PUSH2 0x528 JUMPI POP DUP6 MLOAD DUP4 LT JUMPDEST ISZERO PUSH2 0x612 JUMPI DUP6 DUP4 DUP2 MLOAD DUP2 LT PUSH2 0x540 JUMPI PUSH2 0x53F PUSH2 0xAA2 JUMP JUMPDEST JUMPDEST PUSH1 0x20 MUL PUSH1 0x20 ADD ADD MLOAD DUP8 DUP6 DUP2 MLOAD DUP2 LT PUSH2 0x55B JUMPI PUSH2 0x55A PUSH2 0xAA2 JUMP JUMPDEST JUMPDEST PUSH1 0x20 MUL PUSH1 0x20 ADD ADD MLOAD GT ISZERO PUSH2 0x5B6 JUMPI DUP6 DUP4 DUP2 MLOAD DUP2 LT PUSH2 0x57C JUMPI PUSH2 0x57B PUSH2 0xAA2 JUMP JUMPDEST JUMPDEST PUSH1 0x20 MUL PUSH1 0x20 ADD ADD MLOAD DUP2 DUP4 DUP2 MLOAD DUP2 LT PUSH2 0x597 JUMPI PUSH2 0x596 PUSH2 0xAA2 JUMP JUMPDEST JUMPDEST PUSH1 0x20 MUL PUSH1 0x20 ADD ADD DUP2 DUP2 MSTORE POP POP DUP3 DUP1 PUSH2 0x5AE SWAP1 PUSH2 0xAD1 JUMP JUMPDEST SWAP4 POP POP PUSH2 0x5FF JUMP JUMPDEST DUP7 DUP5 DUP2 MLOAD DUP2 LT PUSH2 0x5C9 JUMPI PUSH2 0x5C8 PUSH2 0xAA2 JUMP JUMPDEST JUMPDEST PUSH1 0x20 MUL PUSH1 0x20 ADD ADD MLOAD DUP2 DUP4 DUP2 MLOAD DUP2 LT PUSH2 0x5E4 JUMPI PUSH2 0x5E3 PUSH2 0xAA2 JUMP JUMPDEST JUMPDEST PUSH1 0x20 MUL PUSH1 0x20 ADD ADD DUP2 DUP2 MSTORE POP POP DUP4 DUP1 PUSH2 0x5FB SWAP1 PUSH2 0xAD1 JUMP JUMPDEST SWAP5 POP POP JUMPDEST DUP2 DUP1 PUSH2 0x60A SWAP1 PUSH2 0xAD1 JUMP JUMPDEST SWAP3 POP POP PUSH2 0x518 JUMP JUMPDEST JUMPDEST DUP7 MLOAD DUP5 LT ISZERO PUSH2 0x677 JUMPI DUP7 DUP5 DUP2 MLOAD DUP2 LT PUSH2 0x62F JUMPI PUSH2 0x62E PUSH2 0xAA2 JUMP JUMPDEST JUMPDEST PUSH1 0x20 MUL PUSH1 0x20 ADD ADD MLOAD DUP2 DUP4 DUP2 MLOAD DUP2 LT PUSH2 0x64A JUMPI PUSH2 0x649 PUSH2 0xAA2 JUMP JUMPDEST JUMPDEST PUSH1 0x20 MUL PUSH1 0x20 ADD ADD DUP2 DUP2 MSTORE POP POP DUP4 DUP1 PUSH2 0x661 SWAP1 PUSH2 0xAD1 JUMP JUMPDEST SWAP5 POP POP DUP2 DUP1 PUSH2 0x66F SWAP1 PUSH2 0xAD1 JUMP JUMPDEST SWAP3 POP POP PUSH2 0x613 JUMP JUMPDEST JUMPDEST DUP6 MLOAD DUP5 LT ISZERO PUSH2 0x6DC JUMPI DUP6 DUP4 DUP2 MLOAD DUP2 LT PUSH2 0x694 JUMPI PUSH2 0x693 PUSH2 0xAA2 JUMP JUMPDEST JUMPDEST PUSH1 0x20 MUL PUSH1 0x20 ADD ADD MLOAD DUP2 DUP4 DUP2 MLOAD DUP2 LT PUSH2 0x6AF JUMPI PUSH2 0x6AE PUSH2 0xAA2 JUMP JUMPDEST JUMPDEST PUSH1 0x20 MUL PUSH1 0x20 ADD ADD DUP2 DUP2 MSTORE POP POP DUP3 DUP1 PUSH2 0x6C6 SWAP1 PUSH2 0xAD1 JUMP JUMPDEST SWAP4 POP POP DUP2 DUP1 PUSH2 0x6D4 SWAP1 PUSH2 0xAD1 JUMP JUMPDEST SWAP3 POP POP PUSH2 0x678 JUMP JUMPDEST DUP1 SWAP5 POP POP POP POP POP SWAP3 SWAP2 POP POP JUMP JUMPDEST PUSH1 0x0 PUSH1 0x40 MLOAD SWAP1 POP SWAP1 JUMP JUMPDEST PUSH1 0x0 DUP1 REVERT JUMPDEST PUSH1 0x0 DUP1 REVERT JUMPDEST PUSH1 0x0 DUP1 REVERT JUMPDEST PUSH1 0x0 PUSH1 0x1F NOT PUSH1 0x1F DUP4 ADD AND SWAP1 POP SWAP2 SWAP1 POP JUMP JUMPDEST PUSH32 0x4E487B7100000000000000000000000000000000000000000000000000000000 PUSH1 0x0 MSTORE PUSH1 0x41 PUSH1 0x4 MSTORE PUSH1 0x24 PUSH1 0x0 REVERT JUMPDEST PUSH2 0x74B DUP3 PUSH2 0x702 JUMP JUMPDEST DUP2 ADD DUP2 DUP2 LT PUSH8 0xFFFFFFFFFFFFFFFF DUP3 GT OR ISZERO PUSH2 0x76A JUMPI PUSH2 0x769 PUSH2 0x713 JUMP JUMPDEST JUMPDEST DUP1 PUSH1 0x40 MSTORE POP POP POP JUMP JUMPDEST PUSH1 0x0 PUSH2 0x77D PUSH2 0x6E9 JUMP JUMPDEST SWAP1 POP PUSH2 0x789 DUP3 DUP3 PUSH2 0x742 JUMP JUMPDEST SWAP2 SWAP1 POP JUMP JUMPDEST PUSH1 0x0 PUSH8 0xFFFFFFFFFFFFFFFF DUP3 GT ISZERO PUSH2 0x7A9 JUMPI PUSH2 0x7A8 PUSH2 0x713 JUMP JUMPDEST JUMPDEST PUSH1 0x20 DUP3 MUL SWAP1 POP PUSH1 0x20 DUP2 ADD SWAP1 POP SWAP2 SWAP1 POP JUMP JUMPDEST PUSH1 0x0 DUP1 REVERT JUMPDEST PUSH1 0x0 DUP2 SWAP1 POP SWAP2 SWAP1 POP JUMP JUMPDEST PUSH2 0x7D2 DUP2 PUSH2 0x7BF JUMP JUMPDEST DUP2 EQ PUSH2 0x7DD JUMPI PUSH1 0x0 DUP1 REVERT JUMPDEST POP JUMP JUMPDEST PUSH1 0x0 DUP2 CALLDATALOAD SWAP1 POP PUSH2 0x7EF DUP2 PUSH2 0x7C9 JUMP JUMPDEST SWAP3 SWAP2 POP POP JUMP JUMPDEST PUSH1 0x0 PUSH2 0x808 PUSH2 0x803 DUP5 PUSH2 0x78E JUMP JUMPDEST PUSH2 0x773 JUMP JUMPDEST SWAP1 POP DUP1 DUP4 DUP3 MSTORE PUSH1 0x20 DUP3 ADD SWAP1 POP PUSH1 0x20 DUP5 MUL DUP4 ADD DUP6 DUP2 GT ISZERO PUSH2 0x82B JUMPI PUSH2 0x82A PUSH2 0x7BA JUMP JUMPDEST JUMPDEST DUP4 JUMPDEST DUP2 DUP2 LT ISZERO PUSH2 0x854 JUMPI DUP1 PUSH2 0x840 DUP9 DUP3 PUSH2 0x7E0 JUMP JUMPDEST DUP5 MSTORE PUSH1 0x20 DUP5 ADD SWAP4 POP POP PUSH1 0x20 DUP2 ADD SWAP1 POP PUSH2 0x82D JUMP JUMPDEST POP POP POP SWAP4 SWAP3 POP POP POP JUMP JUMPDEST PUSH1 0x0 DUP3 PUSH1 0x1F DUP4 ADD SLT PUSH2 0x873 JUMPI PUSH2 0x872 PUSH2 0x6FD JUMP JUMPDEST JUMPDEST DUP2 CALLDATALOAD PUSH2 0x883 DUP5 DUP3 PUSH1 0x20 DUP7 ADD PUSH2 0x7F5 JUMP JUMPDEST SWAP2 POP POP SWAP3 SWAP2 POP POP JUMP JUMPDEST PUSH1 0x0 PUSH1 0x20 DUP3 DUP5 SUB SLT ISZERO PUSH2 0x8A2 JUMPI PUSH2 0x8A1 PUSH2 0x6F3 JUMP JUMPDEST JUMPDEST PUSH1 0x0 DUP3 ADD CALLDATALOAD PUSH8 0xFFFFFFFFFFFFFFFF DUP2 GT ISZERO PUSH2 0x8C0 JUMPI PUSH2 0x8BF PUSH2 0x6F8 JUMP JUMPDEST JUMPDEST PUSH2 0x8CC DUP5 DUP3 DUP6 ADD PUSH2 0x85E JUMP JUMPDEST SWAP2 POP POP SWAP3 SWAP2 POP POP JUMP JUMPDEST PUSH1 0x0 DUP2 MLOAD SWAP1 POP SWAP2 SWAP1 POP JUMP JUMPDEST PUSH1 0x0 DUP3 DUP3 MSTORE PUSH1 0x20 DUP3 ADD SWAP1 POP SWAP3 SWAP2 POP POP JUMP JUMPDEST PUSH1 0x0 DUP2 SWAP1 POP PUSH1 0x20 DUP3 ADD SWAP1 POP SWAP2 SWAP1 POP JUMP JUMPDEST PUSH2 0x90A DUP2 PUSH2 0x7BF JUMP JUMPDEST DUP3 MSTORE POP POP JUMP JUMPDEST PUSH1 0x0 PUSH2 0x91C DUP4 DUP4 PUSH2 0x901 JUMP JUMPDEST PUSH1 0x20 DUP4 ADD SWAP1 POP SWAP3 SWAP2 POP POP JUMP JUMPDEST PUSH1 0x0 PUSH1 0x20 DUP3 ADD SWAP1 POP SWAP2 SWAP1 POP JUMP JUMPDEST PUSH1 0x0 PUSH2 0x940 DUP3 PUSH2 0x8D5 JUMP JUMPDEST PUSH2 0x94A DUP2 DUP6 PUSH2 0x8E0 JUMP JUMPDEST SWAP4 POP PUSH2 0x955 DUP4 PUSH2 0x8F1 JUMP JUMPDEST DUP1 PUSH1 0x0 JUMPDEST DUP4 DUP2 LT ISZERO PUSH2 0x986 JUMPI DUP2 MLOAD PUSH2 0x96D DUP9 DUP3 PUSH2 0x910 JUMP JUMPDEST SWAP8 POP PUSH2 0x978 DUP4 PUSH2 0x928 JUMP JUMPDEST SWAP3 POP POP PUSH1 0x1 DUP2 ADD SWAP1 POP PUSH2 0x959 JUMP JUMPDEST POP DUP6 SWAP4 POP POP POP POP SWAP3 SWAP2 POP POP JUMP JUMPDEST PUSH1 0x0 PUSH1 0x20 DUP3 ADD SWAP1 POP DUP2 DUP2 SUB PUSH1 0x0 DUP4 ADD MSTORE PUSH2 0x9AD DUP2 DUP5 PUSH2 0x935 JUMP JUMPDEST SWAP1 POP SWAP3 SWAP2 POP POP JUMP JUMPDEST PUSH2 0x9BE DUP2 PUSH2 0x7BF JUMP JUMPDEST DUP3 MSTORE POP POP JUMP JUMPDEST PUSH1 0x0 PUSH1 0x20 DUP3 ADD SWAP1 POP PUSH2 0x9D9 PUSH1 0x0 DUP4 ADD DUP5 PUSH2 0x9B5 JUMP JUMPDEST SWAP3 SWAP2 POP POP JUMP JUMPDEST PUSH32 0x4E487B7100000000000000000000000000000000000000000000000000000000 PUSH1 0x0 MSTORE PUSH1 0x12 PUSH1 0x4 MSTORE PUSH1 0x24 PUSH1 0x0 REVERT JUMPDEST PUSH32 0x4E487B7100000000000000000000000000000000000000000000000000000000 PUSH1 0x0 MSTORE PUSH1 0x11 PUSH1 0x4 MSTORE PUSH1 0x24 PUSH1 0x0 REVERT JUMPDEST PUSH1 0x0 PUSH2 0xA48 DUP3 PUSH2 0x7BF JUMP JUMPDEST SWAP2 POP PUSH2 0xA53 DUP4 PUSH2 0x7BF JUMP JUMPDEST SWAP3 POP DUP3 PUSH2 0xA63 JUMPI PUSH2 0xA62 PUSH2 0x9DF JUMP JUMPDEST JUMPDEST DUP3 DUP3 DIV SWAP1 POP SWAP3 SWAP2 POP POP JUMP JUMPDEST PUSH1 0x0 PUSH2 0xA79 DUP3 PUSH2 0x7BF JUMP JUMPDEST SWAP2 POP PUSH2 0xA84 DUP4 PUSH2 0x7BF JUMP JUMPDEST SWAP3 POP DUP3 DUP3 SUB SWAP1 POP DUP2 DUP2 GT ISZERO PUSH2 0xA9C JUMPI PUSH2 0xA9B PUSH2 0xA0E JUMP JUMPDEST JUMPDEST SWAP3 SWAP2 POP POP JUMP JUMPDEST PUSH32 0x4E487B7100000000000000000000000000000000000000000000000000000000 PUSH1 0x0 MSTORE PUSH1 0x32 PUSH1 0x4 MSTORE PUSH1 0x24 PUSH1 0x0 REVERT JUMPDEST PUSH1 0x0 PUSH2 0xADC DUP3 PUSH2 0x7BF JUMP JUMPDEST SWAP2 POP PUSH32 0xFFFFFFFFFFFFFFFFFFFFFFFFFFFFFFFFFFFFFFFFFFFFFFFFFFFFFFFFFFFFFFFF DUP3 SUB PUSH2 0xB0E JUMPI PUSH2 0xB0D PUSH2 0xA0E JUMP JUMPDEST JUMPDEST PUSH1 0x1 DUP3 ADD SWAP1 POP SWAP2 SWAP1 POP JUMP JUMPDEST PUSH1 0x0 PUSH2 0xB24 DUP3 PUSH2 0x7BF JUMP JUMPDEST SWAP2 POP PUSH2 0xB2F DUP4 PUSH2 0x7BF JUMP JUMPDEST SWAP3 POP DUP3 DUP3 ADD SWAP1 POP DUP1 DUP3 GT ISZERO PUSH2 0xB47 JUMPI PUSH2 0xB46 PUSH2 0xA0E JUMP JUMPDEST JUMPDEST SWAP3 SWAP2 POP POP JUMP JUMPDEST PUSH1 0x0 PUSH2 0xB58 DUP3 PUSH2 0x7BF JUMP JUMPDEST SWAP2 POP PUSH1 0x0 DUP3 SUB PUSH2 0xB6B JUMPI PUSH2 0xB6A PUSH2 0xA0E JUMP JUMPDEST JUMPDEST PUSH1 0x1 DUP3 SUB SWAP1 POP SWAP2 SWAP1 POP JUMP INVALID LOG2 PUSH5 0x6970667358 0x22 SLT KECCAK256 0xE7 0xD3 MULMOD PUSH10 0x92A669291944B5B65533 0xB2 0xD OR CREATE DUP16 PUSH14 0x71EB767DF23AF435E5DCFC856473 PUSH16 0x6C634300081500330000000000000000 "
        },
        "methodIdentifiers": {
          "bubbleSort(uint256[])": "e30c36f1",
          "insertionSort(uint256[])": "6297206f",
          "mergeSort(uint256[])": "45925912",
          "salam()": "ba59d9ff"
        }
      }
    }
  }
}